{
  "contractName": "Election",
  "abi": [
    {
      "inputs": [],
      "stateMutability": "nonpayable",
      "type": "constructor"
    },
    {
      "anonymous": false,
      "inputs": [
        {
          "indexed": false,
          "internalType": "uint256",
          "name": "candidateId",
          "type": "uint256"
        },
        {
          "indexed": false,
          "internalType": "string",
          "name": "age",
          "type": "string"
        },
        {
          "indexed": false,
          "internalType": "string",
          "name": "name",
          "type": "string"
        },
        {
          "indexed": false,
          "internalType": "uint256",
          "name": "voteCount",
          "type": "uint256"
        },
        {
          "indexed": false,
          "internalType": "address",
          "name": "_address",
          "type": "address"
        }
      ],
      "name": "CandidateCreate",
      "type": "event"
    },
    {
      "anonymous": false,
      "inputs": [
        {
          "indexed": true,
          "internalType": "uint256",
          "name": "voter_voterId",
          "type": "uint256"
        },
        {
          "indexed": false,
          "internalType": "string",
          "name": "voter_name",
          "type": "string"
        },
        {
          "indexed": false,
          "internalType": "string",
          "name": "voter_age",
          "type": "string"
        },
        {
          "indexed": false,
          "internalType": "address",
          "name": "voter_address",
          "type": "address"
        },
        {
          "indexed": false,
          "internalType": "uint256",
          "name": "voter_allowed",
          "type": "uint256"
        },
        {
          "indexed": false,
          "internalType": "bool",
          "name": "voter_voted",
          "type": "bool"
        },
        {
          "indexed": false,
          "internalType": "uint256",
          "name": "voter_vote",
          "type": "uint256"
        }
      ],
      "name": "VoterCreated",
      "type": "event"
    },
    {
      "inputs": [],
      "name": "_candidateId",
      "outputs": [
        {
          "internalType": "uint256",
          "name": "_value",
          "type": "uint256"
        }
      ],
      "stateMutability": "view",
      "type": "function",
      "constant": true
    },
    {
      "inputs": [],
      "name": "_voterId",
      "outputs": [
        {
          "internalType": "uint256",
          "name": "_value",
          "type": "uint256"
        }
      ],
      "stateMutability": "view",
      "type": "function",
      "constant": true
    },
    {
      "inputs": [
        {
          "internalType": "uint256",
          "name": "",
          "type": "uint256"
        }
      ],
      "name": "candidateAddress",
      "outputs": [
        {
          "internalType": "address",
          "name": "",
          "type": "address"
        }
      ],
      "stateMutability": "view",
      "type": "function",
      "constant": true
    },
    {
      "inputs": [
        {
          "internalType": "address",
          "name": "",
          "type": "address"
        }
      ],
      "name": "candidates",
      "outputs": [
        {
          "internalType": "uint256",
          "name": "candidateId",
          "type": "uint256"
        },
        {
          "internalType": "string",
          "name": "age",
          "type": "string"
        },
        {
          "internalType": "string",
          "name": "name",
          "type": "string"
        },
        {
          "internalType": "uint256",
          "name": "voteCount",
          "type": "uint256"
        },
        {
          "internalType": "address",
          "name": "_address",
          "type": "address"
        }
      ],
      "stateMutability": "view",
      "type": "function",
      "constant": true
    },
    {
      "inputs": [
        {
          "internalType": "uint256",
          "name": "",
          "type": "uint256"
        }
      ],
      "name": "votedVoters",
      "outputs": [
        {
          "internalType": "address",
          "name": "",
          "type": "address"
        }
      ],
      "stateMutability": "view",
      "type": "function",
      "constant": true
    },
    {
      "inputs": [
        {
          "internalType": "address",
          "name": "",
          "type": "address"
        }
      ],
      "name": "voters",
      "outputs": [
        {
          "internalType": "uint256",
          "name": "voter_voterId",
          "type": "uint256"
        },
        {
          "internalType": "string",
          "name": "voter_name",
          "type": "string"
        },
        {
          "internalType": "string",
          "name": "voter_age",
          "type": "string"
        },
        {
          "internalType": "address",
          "name": "voter_address",
          "type": "address"
        },
        {
          "internalType": "uint256",
          "name": "voter_allowed",
          "type": "uint256"
        },
        {
          "internalType": "bool",
          "name": "voter_voted",
          "type": "bool"
        },
        {
          "internalType": "uint256",
          "name": "voter_vote",
          "type": "uint256"
        }
      ],
      "stateMutability": "view",
      "type": "function",
      "constant": true
    },
    {
      "inputs": [
        {
          "internalType": "uint256",
          "name": "",
          "type": "uint256"
        }
      ],
      "name": "votersAdress",
      "outputs": [
        {
          "internalType": "address",
          "name": "",
          "type": "address"
        }
      ],
      "stateMutability": "view",
      "type": "function",
      "constant": true
    },
    {
      "inputs": [],
      "name": "votingOrganizer",
      "outputs": [
        {
          "internalType": "address",
          "name": "",
          "type": "address"
        }
      ],
      "stateMutability": "view",
      "type": "function",
      "constant": true
    },
    {
      "inputs": [],
      "name": "winner",
      "outputs": [
        {
          "internalType": "address",
          "name": "",
          "type": "address"
        }
      ],
      "stateMutability": "view",
      "type": "function",
      "constant": true
    },
    {
      "inputs": [
        {
          "internalType": "address",
          "name": "_address",
          "type": "address"
        },
        {
          "internalType": "string",
          "name": "_age",
          "type": "string"
        },
        {
          "internalType": "string",
          "name": "_name",
          "type": "string"
        }
      ],
      "name": "setCandidate",
      "outputs": [],
      "stateMutability": "nonpayable",
      "type": "function"
    },
    {
      "inputs": [],
      "name": "getCandidate",
      "outputs": [
        {
          "internalType": "address[]",
          "name": "",
          "type": "address[]"
        }
      ],
      "stateMutability": "view",
      "type": "function",
      "constant": true
    },
    {
      "inputs": [],
      "name": "getCandidateLength",
      "outputs": [
        {
          "internalType": "uint256",
          "name": "",
          "type": "uint256"
        }
      ],
      "stateMutability": "view",
      "type": "function",
      "constant": true
    },
    {
      "inputs": [
        {
          "internalType": "address",
          "name": "_address",
          "type": "address"
        }
      ],
      "name": "getCandidateData",
      "outputs": [
        {
          "internalType": "string",
          "name": "",
          "type": "string"
        },
        {
          "internalType": "string",
          "name": "",
          "type": "string"
        },
        {
          "internalType": "uint256",
          "name": "",
          "type": "uint256"
        },
        {
          "internalType": "uint256",
          "name": "",
          "type": "uint256"
        },
        {
          "internalType": "address",
          "name": "",
          "type": "address"
        }
      ],
      "stateMutability": "view",
      "type": "function",
      "constant": true
    },
    {
      "inputs": [
        {
          "internalType": "address",
          "name": "_address",
          "type": "address"
        },
        {
          "internalType": "string",
          "name": "_name",
          "type": "string"
        },
        {
          "internalType": "string",
          "name": "_age",
          "type": "string"
        }
      ],
      "name": "voterRight",
      "outputs": [],
      "stateMutability": "nonpayable",
      "type": "function"
    },
    {
      "inputs": [
        {
          "internalType": "address",
          "name": "_candidateAddress",
          "type": "address"
        },
        {
          "internalType": "uint256",
          "name": "_candidateVoteId",
          "type": "uint256"
        }
      ],
      "name": "vote",
      "outputs": [],
      "stateMutability": "nonpayable",
      "type": "function"
    },
    {
      "inputs": [],
      "name": "getVoterLength",
      "outputs": [
        {
          "internalType": "uint256",
          "name": "",
          "type": "uint256"
        }
      ],
      "stateMutability": "view",
      "type": "function",
      "constant": true
    },
    {
      "inputs": [
        {
          "internalType": "address",
          "name": "_address",
          "type": "address"
        }
      ],
      "name": "getVoterData",
      "outputs": [
        {
          "internalType": "uint256",
          "name": "",
          "type": "uint256"
        },
        {
          "internalType": "string",
          "name": "",
          "type": "string"
        },
        {
          "internalType": "address",
          "name": "",
          "type": "address"
        },
        {
          "internalType": "uint256",
          "name": "",
          "type": "uint256"
        },
        {
          "internalType": "bool",
          "name": "",
          "type": "bool"
        }
      ],
      "stateMutability": "view",
      "type": "function",
      "constant": true
    },
    {
      "inputs": [],
      "name": "getVotedVoterList",
      "outputs": [
        {
          "internalType": "address[]",
          "name": "",
          "type": "address[]"
        }
      ],
      "stateMutability": "view",
      "type": "function",
      "constant": true
    },
    {
      "inputs": [],
      "name": "getVoterList",
      "outputs": [
        {
          "internalType": "address[]",
          "name": "",
          "type": "address[]"
        }
      ],
      "stateMutability": "view",
      "type": "function",
      "constant": true
    },
    {
      "inputs": [],
      "name": "getWinner",
      "outputs": [
        {
          "internalType": "string",
          "name": "",
          "type": "string"
        },
        {
          "internalType": "string",
          "name": "",
          "type": "string"
        },
        {
          "internalType": "uint256",
          "name": "",
          "type": "uint256"
        },
        {
          "internalType": "uint256",
          "name": "",
          "type": "uint256"
        },
        {
          "internalType": "address",
          "name": "",
          "type": "address"
        }
      ],
      "stateMutability": "nonpayable",
      "type": "function"
    }
  ],
  "bytecode": "0x608060405234801561001057600080fd5b5033600260006101000a81548173ffffffffffffffffffffffffffffffffffffffff021916908373ffffffffffffffffffffffffffffffffffffffff160217905550612523806100616000396000f3fe608060405234801561001057600080fd5b506004361061012c5760003560e01c80638ab66a90116100ad578063a738896711610071578063a738896714610381578063b28d92ae1461039f578063b9be3152146103bd578063dfbf53ae146103db578063f7522a83146103f95761012c565b80638ab66a90146102a35780638e7ea5b2146102d75780638e945685146102f95780638fb4cd8014610317578063a3ec138d1461034b5761012c565b80635f74bbde116100f45780635f74bbde146101ed57806370218b85146102095780637540e45d146102275780637831ffb3146102575780637a60ba41146102875761012c565b806305ad45a4146101315780631ddfe84b1461014f5780632a466ac71461016b5780633a88251a1461019f5780635cc48aa7146101cf575b600080fd5b610139610417565b6040516101469190611a50565b60405180910390f35b61016960048036038101906101649190611c23565b610424565b005b61018560048036038101906101809190611cae565b6106cb565b604051610196959493929190611d72565b60405180910390f35b6101b960048036038101906101b49190611dff565b61096b565b6040516101c69190611e2c565b60405180910390f35b6101d76109aa565b6040516101e49190611e2c565b60405180910390f35b61020760048036038101906102029190611e47565b6109d0565b005b610211610b97565b60405161021e9190611f45565b60405180910390f35b610241600480360381019061023c9190611dff565b610c25565b60405161024e9190611e2c565b60405180910390f35b610271600480360381019061026c9190611dff565b610c64565b60405161027e9190611e2c565b60405180910390f35b6102a1600480360381019061029c9190611c23565b610ca3565b005b6102bd60048036038101906102b89190611cae565b610ec3565b6040516102ce959493929190611f67565b60405180910390f35b6102df611029565b6040516102f0959493929190611d72565b60405180910390f35b610301611467565b60405161030e9190611f45565b60405180910390f35b610331600480360381019061032c9190611cae565b6114f5565b604051610342959493929190611fe3565b60405180910390f35b61036560048036038101906103609190611cae565b611718565b604051610378979695949392919061203d565b60405180910390f35b610389611897565b6040516103969190611a50565b60405180910390f35b6103a76118a3565b6040516103b49190611f45565b60405180910390f35b6103c5611931565b6040516103d29190611a50565b60405180910390f35b6103e361193d565b6040516103f09190611e2c565b60405180910390f35b610401611963565b60405161040e9190611a50565b60405180910390f35b6000600780549050905090565b3373ffffffffffffffffffffffffffffffffffffffff16600260009054906101000a900473ffffffffffffffffffffffffffffffffffffffff1673ffffffffffffffffffffffffffffffffffffffff16146104b4576040517f08c379a00000000000000000000000000000000000000000000000000000000081526004016104ab9061212c565b60405180910390fd5b6104be6000611970565b60006104ca6000611986565b90506000600860008673ffffffffffffffffffffffffffffffffffffffff1673ffffffffffffffffffffffffffffffffffffffff16815260200190815260200160002090506000816004015414610556576040517f08c379a000000000000000000000000000000000000000000000000000000000815260040161054d90612198565b60405180910390fd5b6001816004018190555083816001019080519060200190610578929190611994565b5082816002019080519060200190610591929190611994565b50848160030160006101000a81548173ffffffffffffffffffffffffffffffffffffffff021916908373ffffffffffffffffffffffffffffffffffffffff1602179055508181600001819055506101f4816006018190555060008160050160006101000a81548160ff0219169083151502179055506007859080600181540180825580915050600190039060005260206000200160009091909190916101000a81548173ffffffffffffffffffffffffffffffffffffffff021916908373ffffffffffffffffffffffffffffffffffffffff160217905550817f7a4901d37c233abe8a69cc2347f3038ed337dadbb8ed7cb7baab646d2dee993a85858885600401548660050160009054906101000a900460ff1687600601546040516106bc969594939291906121b8565b60405180910390a25050505050565b6060806000806000600560008773ffffffffffffffffffffffffffffffffffffffff1673ffffffffffffffffffffffffffffffffffffffff168152602001908152602001600020600101600560008873ffffffffffffffffffffffffffffffffffffffff1673ffffffffffffffffffffffffffffffffffffffff168152602001908152602001600020600201600560008973ffffffffffffffffffffffffffffffffffffffff1673ffffffffffffffffffffffffffffffffffffffff16815260200190815260200160002060000154600560008a73ffffffffffffffffffffffffffffffffffffffff1673ffffffffffffffffffffffffffffffffffffffff16815260200190815260200160002060030154600560008b73ffffffffffffffffffffffffffffffffffffffff1673ffffffffffffffffffffffffffffffffffffffff16815260200190815260200160002060040160009054906101000a900473ffffffffffffffffffffffffffffffffffffffff1684805461084c90612256565b80601f016020809104026020016040519081016040528092919081815260200182805461087890612256565b80156108c55780601f1061089a576101008083540402835291602001916108c5565b820191906000526020600020905b8154815290600101906020018083116108a857829003601f168201915b505050505094508380546108d890612256565b80601f016020809104026020016040519081016040528092919081815260200182805461090490612256565b80156109515780601f1061092657610100808354040283529160200191610951565b820191906000526020600020905b81548152906001019060200180831161093457829003601f168201915b505050505093509450945094509450945091939590929450565b6004818154811061097b57600080fd5b906000526020600020016000915054906101000a900473ffffffffffffffffffffffffffffffffffffffff1681565b600260009054906101000a900473ffffffffffffffffffffffffffffffffffffffff1681565b6000600860003373ffffffffffffffffffffffffffffffffffffffff1673ffffffffffffffffffffffffffffffffffffffff16815260200190815260200160002090508060050160009054906101000a900460ff1615610a65576040517f08c379a0000000000000000000000000000000000000000000000000000000008152600401610a5c906122d3565b60405180910390fd5b6000816004015403610aac576040517f08c379a0000000000000000000000000000000000000000000000000000000008152600401610aa39061233f565b60405180910390fd5b60018160050160006101000a81548160ff0219169083151502179055508181600601819055506006339080600181540180825580915050600190039060005260206000200160009091909190916101000a81548173ffffffffffffffffffffffffffffffffffffffff021916908373ffffffffffffffffffffffffffffffffffffffff1602179055508060040154600560008573ffffffffffffffffffffffffffffffffffffffff1673ffffffffffffffffffffffffffffffffffffffff1681526020019081526020016000206003016000828254610b8b919061238e565b92505081905550505050565b60606004805480602002602001604051908101604052809291908181526020018280548015610c1b57602002820191906000526020600020905b8160009054906101000a900473ffffffffffffffffffffffffffffffffffffffff1673ffffffffffffffffffffffffffffffffffffffff1681526020019060010190808311610bd1575b5050505050905090565b60078181548110610c3557600080fd5b906000526020600020016000915054906101000a900473ffffffffffffffffffffffffffffffffffffffff1681565b60068181548110610c7457600080fd5b906000526020600020016000915054906101000a900473ffffffffffffffffffffffffffffffffffffffff1681565b3373ffffffffffffffffffffffffffffffffffffffff16600260009054906101000a900473ffffffffffffffffffffffffffffffffffffffff1673ffffffffffffffffffffffffffffffffffffffff1614610d33576040517f08c379a0000000000000000000000000000000000000000000000000000000008152600401610d2a90612456565b60405180910390fd5b610d3d6001611970565b6000610d496001611986565b90506000600560008673ffffffffffffffffffffffffffffffffffffffff1673ffffffffffffffffffffffffffffffffffffffff168152602001908152602001600020905083816001019080519060200190610da6929190611994565b5082816002019080519060200190610dbf929190611994565b5081816000018190555060008160030181905550848160040160006101000a81548173ffffffffffffffffffffffffffffffffffffffff021916908373ffffffffffffffffffffffffffffffffffffffff1602179055506004859080600181540180825580915050600190039060005260206000200160009091909190916101000a81548173ffffffffffffffffffffffffffffffffffffffff021916908373ffffffffffffffffffffffffffffffffffffffff1602179055507f08dd4bc574cc17d01af017961e76f11c5eee75ffe07e2d36f90b7e2a83ef754d828585846003015489604051610eb4959493929190611f67565b60405180910390a15050505050565b6005602052806000526040600020600091509050806000015490806001018054610eec90612256565b80601f0160208091040260200160405190810160405280929190818152602001828054610f1890612256565b8015610f655780601f10610f3a57610100808354040283529160200191610f65565b820191906000526020600020905b815481529060010190602001808311610f4857829003601f168201915b505050505090806002018054610f7a90612256565b80601f0160208091040260200160405190810160405280929190818152602001828054610fa690612256565b8015610ff35780601f10610fc857610100808354040283529160200191610ff3565b820191906000526020600020905b815481529060010190602001808311610fd657829003601f168201915b5050505050908060030154908060040160009054906101000a900473ffffffffffffffffffffffffffffffffffffffff16905085565b60608060008060008060005b6004805490508110156111255760006004828154811061105857611057612476565b5b9060005260206000200160009054906101000a900473ffffffffffffffffffffffffffffffffffffffff16905082600560008373ffffffffffffffffffffffffffffffffffffffff1673ffffffffffffffffffffffffffffffffffffffff1681526020019081526020016000206003015411156111115780600360006101000a81548173ffffffffffffffffffffffffffffffffffffffff021916908373ffffffffffffffffffffffffffffffffffffffff1602179055505b50808061111d906124a5565b915050611035565b5060056000600360009054906101000a900473ffffffffffffffffffffffffffffffffffffffff1673ffffffffffffffffffffffffffffffffffffffff1673ffffffffffffffffffffffffffffffffffffffff16815260200190815260200160002060010160056000600360009054906101000a900473ffffffffffffffffffffffffffffffffffffffff1673ffffffffffffffffffffffffffffffffffffffff1673ffffffffffffffffffffffffffffffffffffffff16815260200190815260200160002060020160056000600360009054906101000a900473ffffffffffffffffffffffffffffffffffffffff1673ffffffffffffffffffffffffffffffffffffffff1673ffffffffffffffffffffffffffffffffffffffff1681526020019081526020016000206000015460056000600360009054906101000a900473ffffffffffffffffffffffffffffffffffffffff1673ffffffffffffffffffffffffffffffffffffffff1673ffffffffffffffffffffffffffffffffffffffff1681526020019081526020016000206003015460056000600360009054906101000a900473ffffffffffffffffffffffffffffffffffffffff1673ffffffffffffffffffffffffffffffffffffffff1673ffffffffffffffffffffffffffffffffffffffff16815260200190815260200160002060040160009054906101000a900473ffffffffffffffffffffffffffffffffffffffff1684805461134990612256565b80601f016020809104026020016040519081016040528092919081815260200182805461137590612256565b80156113c25780601f10611397576101008083540402835291602001916113c2565b820191906000526020600020905b8154815290600101906020018083116113a557829003601f168201915b505050505094508380546113d590612256565b80601f016020809104026020016040519081016040528092919081815260200182805461140190612256565b801561144e5780601f106114235761010080835404028352916020019161144e565b820191906000526020600020905b81548152906001019060200180831161143157829003601f168201915b5050505050935095509550955095509550509091929394565b606060068054806020026020016040519081016040528092919081815260200182805480156114eb57602002820191906000526020600020905b8160009054906101000a900473ffffffffffffffffffffffffffffffffffffffff1673ffffffffffffffffffffffffffffffffffffffff16815260200190600101908083116114a1575b5050505050905090565b600060606000806000600860008773ffffffffffffffffffffffffffffffffffffffff1673ffffffffffffffffffffffffffffffffffffffff16815260200190815260200160002060000154600860008873ffffffffffffffffffffffffffffffffffffffff1673ffffffffffffffffffffffffffffffffffffffff168152602001908152602001600020600101600860008973ffffffffffffffffffffffffffffffffffffffff1673ffffffffffffffffffffffffffffffffffffffff16815260200190815260200160002060030160009054906101000a900473ffffffffffffffffffffffffffffffffffffffff16600860008a73ffffffffffffffffffffffffffffffffffffffff1673ffffffffffffffffffffffffffffffffffffffff16815260200190815260200160002060040154600860008b73ffffffffffffffffffffffffffffffffffffffff1673ffffffffffffffffffffffffffffffffffffffff16815260200190815260200160002060050160009054906101000a900460ff1683805461168590612256565b80601f01602080910402602001604051908101604052809291908181526020018280546116b190612256565b80156116fe5780601f106116d3576101008083540402835291602001916116fe565b820191906000526020600020905b8154815290600101906020018083116116e157829003601f168201915b505050505093509450945094509450945091939590929450565b600860205280600052604060002060009150905080600001549080600101805461174190612256565b80601f016020809104026020016040519081016040528092919081815260200182805461176d90612256565b80156117ba5780601f1061178f576101008083540402835291602001916117ba565b820191906000526020600020905b81548152906001019060200180831161179d57829003601f168201915b5050505050908060020180546117cf90612256565b80601f01602080910402602001604051908101604052809291908181526020018280546117fb90612256565b80156118485780601f1061181d57610100808354040283529160200191611848565b820191906000526020600020905b81548152906001019060200180831161182b57829003601f168201915b5050505050908060030160009054906101000a900473ffffffffffffffffffffffffffffffffffffffff16908060040154908060050160009054906101000a900460ff16908060060154905087565b60018060000154905081565b6060600780548060200260200160405190810160405280929190818152602001828054801561192757602002820191906000526020600020905b8160009054906101000a900473ffffffffffffffffffffffffffffffffffffffff1673ffffffffffffffffffffffffffffffffffffffff16815260200190600101908083116118dd575b5050505050905090565b60008060000154905081565b600360009054906101000a900473ffffffffffffffffffffffffffffffffffffffff1681565b6000600480549050905090565b6001816000016000828254019250508190555050565b600081600001549050919050565b8280546119a090612256565b90600052602060002090601f0160209004810192826119c25760008555611a09565b82601f106119db57805160ff1916838001178555611a09565b82800160010185558215611a09579182015b82811115611a085782518255916020019190600101906119ed565b5b509050611a169190611a1a565b5090565b5b80821115611a33576000816000905550600101611a1b565b5090565b6000819050919050565b611a4a81611a37565b82525050565b6000602082019050611a656000830184611a41565b92915050565b6000604051905090565b600080fd5b600080fd5b600073ffffffffffffffffffffffffffffffffffffffff82169050919050565b6000611aaa82611a7f565b9050919050565b611aba81611a9f565b8114611ac557600080fd5b50565b600081359050611ad781611ab1565b92915050565b600080fd5b600080fd5b6000601f19601f8301169050919050565b7f4e487b7100000000000000000000000000000000000000000000000000000000600052604160045260246000fd5b611b3082611ae7565b810181811067ffffffffffffffff82111715611b4f57611b4e611af8565b5b80604052505050565b6000611b62611a6b565b9050611b6e8282611b27565b919050565b600067ffffffffffffffff821115611b8e57611b8d611af8565b5b611b9782611ae7565b9050602081019050919050565b82818337600083830152505050565b6000611bc6611bc184611b73565b611b58565b905082815260208101848484011115611be257611be1611ae2565b5b611bed848285611ba4565b509392505050565b600082601f830112611c0a57611c09611add565b5b8135611c1a848260208601611bb3565b91505092915050565b600080600060608486031215611c3c57611c3b611a75565b5b6000611c4a86828701611ac8565b935050602084013567ffffffffffffffff811115611c6b57611c6a611a7a565b5b611c7786828701611bf5565b925050604084013567ffffffffffffffff811115611c9857611c97611a7a565b5b611ca486828701611bf5565b9150509250925092565b600060208284031215611cc457611cc3611a75565b5b6000611cd284828501611ac8565b91505092915050565b600081519050919050565b600082825260208201905092915050565b60005b83811015611d15578082015181840152602081019050611cfa565b83811115611d24576000848401525b50505050565b6000611d3582611cdb565b611d3f8185611ce6565b9350611d4f818560208601611cf7565b611d5881611ae7565b840191505092915050565b611d6c81611a9f565b82525050565b600060a0820190508181036000830152611d8c8188611d2a565b90508181036020830152611da08187611d2a565b9050611daf6040830186611a41565b611dbc6060830185611a41565b611dc96080830184611d63565b9695505050505050565b611ddc81611a37565b8114611de757600080fd5b50565b600081359050611df981611dd3565b92915050565b600060208284031215611e1557611e14611a75565b5b6000611e2384828501611dea565b91505092915050565b6000602082019050611e416000830184611d63565b92915050565b60008060408385031215611e5e57611e5d611a75565b5b6000611e6c85828601611ac8565b9250506020611e7d85828601611dea565b9150509250929050565b600081519050919050565b600082825260208201905092915050565b6000819050602082019050919050565b611ebc81611a9f565b82525050565b6000611ece8383611eb3565b60208301905092915050565b6000602082019050919050565b6000611ef282611e87565b611efc8185611e92565b9350611f0783611ea3565b8060005b83811015611f38578151611f1f8882611ec2565b9750611f2a83611eda565b925050600181019050611f0b565b5085935050505092915050565b60006020820190508181036000830152611f5f8184611ee7565b905092915050565b600060a082019050611f7c6000830188611a41565b8181036020830152611f8e8187611d2a565b90508181036040830152611fa28186611d2a565b9050611fb16060830185611a41565b611fbe6080830184611d63565b9695505050505050565b60008115159050919050565b611fdd81611fc8565b82525050565b600060a082019050611ff86000830188611a41565b818103602083015261200a8187611d2a565b90506120196040830186611d63565b6120266060830185611a41565b6120336080830184611fd4565b9695505050505050565b600060e082019050612052600083018a611a41565b81810360208301526120648189611d2a565b905081810360408301526120788188611d2a565b90506120876060830187611d63565b6120946080830186611a41565b6120a160a0830185611fd4565b6120ae60c0830184611a41565b98975050505050505050565b7f4f6e6c79206f7267616e697a65722063616e2063726561742074686520766f7460008201527f6572000000000000000000000000000000000000000000000000000000000000602082015250565b6000612116602283611ce6565b9150612121826120ba565b604082019050919050565b6000602082019050818103600083015261214581612109565b9050919050565b7f566f74657220697320616c726561647920726567697374657200000000000000600082015250565b6000612182601983611ce6565b915061218d8261214c565b602082019050919050565b600060208201905081810360008301526121b181612175565b9050919050565b600060c08201905081810360008301526121d28189611d2a565b905081810360208301526121e68188611d2a565b90506121f56040830187611d63565b6122026060830186611a41565b61220f6080830185611fd4565b61221c60a0830184611a41565b979650505050505050565b7f4e487b7100000000000000000000000000000000000000000000000000000000600052602260045260246000fd5b6000600282049050600182168061226e57607f821691505b60208210810361228157612280612227565b5b50919050565b7f596f75206861766520616c726561647920766f74656400000000000000000000600082015250565b60006122bd601683611ce6565b91506122c882612287565b602082019050919050565b600060208201905081810360008301526122ec816122b0565b9050919050565b7f596f752068617665206e6f20726967687420746f20766f746500000000000000600082015250565b6000612329601983611ce6565b9150612334826122f3565b602082019050919050565b600060208201905081810360008301526123588161231c565b9050919050565b7f4e487b7100000000000000000000000000000000000000000000000000000000600052601160045260246000fd5b600061239982611a37565b91506123a483611a37565b9250827fffffffffffffffffffffffffffffffffffffffffffffffffffffffffffffffff038211156123d9576123d861235f565b5b828201905092915050565b7f4f6e6c79204f7267616e697a65722063616e204372656174652043616e64696460008201527f6174650000000000000000000000000000000000000000000000000000000000602082015250565b6000612440602383611ce6565b915061244b826123e4565b604082019050919050565b6000602082019050818103600083015261246f81612433565b9050919050565b7f4e487b7100000000000000000000000000000000000000000000000000000000600052603260045260246000fd5b60006124b082611a37565b91507fffffffffffffffffffffffffffffffffffffffffffffffffffffffffffffffff82036124e2576124e161235f565b5b60018201905091905056fea2646970667358221220a92bfd3516a9a2bc1336f8a9eb9090325e64f972834261482eb71cf05f8e4c2d64736f6c634300080e0033",
  "immutableReferences": {},
  "source": "//SPDX-License-Identifier: UNLICENSED\npragma solidity ^0.8.8;\nimport \"../node_modules/@openzeppelin/contracts/utils/Counters.sol\";\n\ncontract Election {\n    using Counters for Counters.Counter;\n\n    Counters.Counter public _voterId;\n    Counters.Counter public _candidateId;\n\n    address public votingOrganizer;\n    address public winner;\n\n    //Candidate For Voting\n\n    address[] public candidateAddress;\n\n    struct Candidate {\n        uint256 candidateId;\n        string age;\n        string name;\n        uint256 voteCount;\n        address _address;\n    }\n\n    event CandidateCreate(\n        uint256 candidateId,\n        string age,\n        string name,\n        uint256 voteCount,\n        address _address\n    );\n\n    mapping(address => Candidate) public candidates;\n\n    // Voters Data\n\n    address[] public votedVoters;\n    address[] public votersAdress;\n\n    struct Voter {\n        uint256 voter_voterId;\n        string voter_name;\n        string voter_age;\n        address voter_address;\n        uint256 voter_allowed;\n        bool voter_voted;\n        uint256 voter_vote;\n    }\n\n    event VoterCreated(\n        uint256 indexed voter_voterId,\n        string voter_name,\n        string voter_age,\n        address voter_address,\n        uint256 voter_allowed,\n        bool voter_voted,\n        uint256 voter_vote\n    );\n\n    mapping(address => Voter) public voters;\n\n    //Constructor\n\n    constructor() {\n        votingOrganizer = msg.sender;\n    }\n\n    //----------Functions for createCandidate----------\n\n    function setCandidate(\n        address _address,\n        string memory _age,\n        string memory _name\n    ) public {\n        require(\n            votingOrganizer == msg.sender,\n            \"Only Organizer can Create Candidate\"\n        );\n\n        _candidateId.increment();\n\n        uint256 idNumber = _candidateId.current();\n\n        Candidate storage candidate = candidates[_address];\n\n        candidate.age = _age;\n        candidate.name = _name;\n        candidate.candidateId = idNumber;\n        candidate.voteCount = 0;\n        candidate._address = _address;\n\n        candidateAddress.push(_address);\n\n        emit CandidateCreate(\n            idNumber,\n            _age,\n            _name,\n            candidate.voteCount,\n            _address\n        );\n    }\n\n    //getCandidate fnction to get all candidate\n\n    function getCandidate() public view returns (address[] memory) {\n        return candidateAddress;\n    }\n\n    //get candidate length function\n\n    function getCandidateLength() public view returns (uint256) {\n        return candidateAddress.length;\n    }\n\n    // get data of a candidate\n\n    function getCandidateData(address _address)\n        public\n        view\n        returns (\n            string memory,\n            string memory,\n            uint256,\n            uint256,\n            address\n        )\n    {\n        return (\n            candidates[_address].age,\n            candidates[_address].name,\n            candidates[_address].candidateId,\n            candidates[_address].voteCount,\n            candidates[_address]._address\n        );\n    }\n\n    //----------Functions for Voter----------\n\n    //give access to the voter to vote function\n\n    function voterRight(\n        address _address,\n        string memory _name,\n        string memory _age\n    ) public {\n        require(\n            votingOrganizer == msg.sender,\n            \"Only organizer can creat the voter\"\n        );\n\n        _voterId.increment();\n\n        uint256 idNumber = _voterId.current();\n\n        Voter storage voter = voters[_address];\n\n        require(voter.voter_allowed == 0, \"Voter is already register\");\n\n        voter.voter_allowed = 1;\n        voter.voter_name = _name;\n        voter.voter_age = _age;\n        voter.voter_address = _address;\n        voter.voter_voterId = idNumber;\n        voter.voter_vote = 500;\n        voter.voter_voted = false;\n\n        votersAdress.push(_address);\n\n        emit VoterCreated(\n            idNumber,\n            _name,\n            _age,\n            _address,\n            voter.voter_allowed,\n            voter.voter_voted,\n            voter.voter_vote\n        );\n    }\n\n    // give vote to someone function\n\n    function vote(address _candidateAddress, uint256 _candidateVoteId) external {\n        Voter storage voter = voters[msg.sender];\n\n        require(!voter.voter_voted, \"You have already voted\");\n        require(voter.voter_allowed != 0, \"You have no right to vote\");\n\n        voter.voter_voted = true;\n        voter.voter_vote = _candidateVoteId;\n        \n        votedVoters.push(msg.sender);\n\n        candidates[_candidateAddress].voteCount += voter.voter_allowed;\n\n    }\n\n    // get voter length function\n\n    function getVoterLength() public view returns (uint256) {\n        return votersAdress.length;\n    }\n\n    // get voter detils function\n\n    function getVoterData(address _address) public view returns (uint256, string memory, address, uint256, bool) {\n        return (\n            voters[_address].voter_voterId,\n            voters[_address].voter_name,\n            voters[_address].voter_address,\n            voters[_address].voter_allowed,\n            voters[_address].voter_voted\n        );\n    }\n\n    //get all voted voter list function\n\n    function getVotedVoterList() public view returns (address[] memory){\n        return votedVoters;\n    }\n\n    //get all the voter list function\n\n    function getVoterList() public view returns (address[] memory) {\n        return votersAdress;\n    }\n\n    //Check winner\n\n    function getWinner() public returns (string memory,string memory,uint256,uint256,address) {\n        uint x;\n        for (uint i=0;i<candidateAddress.length;i++){\n            address temp = candidateAddress[i];\n            if(candidates[temp].voteCount > x){\n                winner = temp;\n            }             \n        }\n        return (\n            candidates[winner].age,\n            candidates[winner].name,\n            candidates[winner].candidateId,\n            candidates[winner].voteCount,\n            candidates[winner]._address\n\n        );\n    }\n\n}\n",
  "sourcePath": "/Volumes/Work/Blockchain Projects/Voting Dapp test2/truffle/contracts/Election.sol",
  "compiler": {
    "name": "solc",
    "version": "0.8.14+commit.80d49f37.Emscripten.clang"
  },
  "schemaVersion": "3.4.11",
  "updatedAt": "2023-02-05T14:24:28.897Z",
  "networkType": "ethereum",
  "devdoc": {
    "kind": "dev",
    "methods": {},
    "version": 1
  },
  "userdoc": {
    "kind": "user",
    "methods": {},
    "version": 1
  }
}